{
  "_format": "hh-sol-artifact-1",
  "contractName": "RightsAssignment",
  "sourceName": "contracts/RightsAssignment.sol",
  "abi": [
    {
      "inputs": [
        {
          "internalType": "address",
          "name": "registryAddress",
          "type": "address"
        }
      ],
      "stateMutability": "nonpayable",
      "type": "constructor"
    },
    {
      "inputs": [
        {
          "internalType": "bytes32",
          "name": "workHash",
          "type": "bytes32"
        }
      ],
      "name": "getRightsHolder",
      "outputs": [
        {
          "internalType": "address",
          "name": "",
          "type": "address"
        }
      ],
      "stateMutability": "view",
      "type": "function"
    },
    {
      "inputs": [],
      "name": "registry",
      "outputs": [
        {
          "internalType": "contract IStonekeepRegistry",
          "name": "",
          "type": "address"
        }
      ],
      "stateMutability": "view",
      "type": "function"
    },
    {
      "inputs": [
        {
          "internalType": "bytes32",
          "name": "workHash",
          "type": "bytes32"
        },
        {
          "internalType": "address",
          "name": "newHolder",
          "type": "address"
        }
      ],
      "name": "transferRights",
      "outputs": [],
      "stateMutability": "nonpayable",
      "type": "function"
    }
  ],
  "bytecode": "0x608060405234801561001057600080fd5b506040516109fd3803806109fd833981810160405281019061003291906100db565b806000806101000a81548173ffffffffffffffffffffffffffffffffffffffff021916908373ffffffffffffffffffffffffffffffffffffffff16021790555050610108565b600080fd5b600073ffffffffffffffffffffffffffffffffffffffff82169050919050565b60006100a88261007d565b9050919050565b6100b88161009d565b81146100c357600080fd5b50565b6000815190506100d5816100af565b92915050565b6000602082840312156100f1576100f0610078565b5b60006100ff848285016100c6565b91505092915050565b6108e6806101176000396000f3fe608060405234801561001057600080fd5b50600436106100415760003560e01c80634fc0e672146100465780637b10399914610076578063e5dcbd2114610094575b600080fd5b610060600480360381019061005b9190610429565b6100b0565b60405161006d9190610497565b60405180910390f35b61007e6101d8565b60405161008b9190610511565b60405180910390f35b6100ae60048036038101906100a99190610558565b6101fc565b005b6000806001600084815260200190815260200160002060009054906101000a900473ffffffffffffffffffffffffffffffffffffffff169050600073ffffffffffffffffffffffffffffffffffffffff168173ffffffffffffffffffffffffffffffffffffffff16036101ce5760008060009054906101000a900473ffffffffffffffffffffffffffffffffffffffff1673ffffffffffffffffffffffffffffffffffffffff166330266537856040518263ffffffff1660e01b815260040161017991906105a7565b600060405180830381865afa158015610196573d6000803e3d6000fd5b505050506040513d6000823e3d601f19601f820116820180604052508101906101bf919061076e565b505050905080925050506101d3565b809150505b919050565b60008054906101000a900473ffffffffffffffffffffffffffffffffffffffff1681565b600033905060006001600085815260200190815260200160002060009054906101000a900473ffffffffffffffffffffffffffffffffffffffff169050600073ffffffffffffffffffffffffffffffffffffffff168173ffffffffffffffffffffffffffffffffffffffff16036103195760008060009054906101000a900473ffffffffffffffffffffffffffffffffffffffff1673ffffffffffffffffffffffffffffffffffffffff166330266537866040518263ffffffff1660e01b81526004016102c991906105a7565b600060405180830381865afa1580156102e6573d6000803e3d6000fd5b505050506040513d6000823e3d601f19601f8201168201806040525081019061030f919061076e565b5050509050809150505b8073ffffffffffffffffffffffffffffffffffffffff168273ffffffffffffffffffffffffffffffffffffffff1614610387576040517f08c379a000000000000000000000000000000000000000000000000000000000815260040161037e90610890565b60405180910390fd5b826001600086815260200190815260200160002060006101000a81548173ffffffffffffffffffffffffffffffffffffffff021916908373ffffffffffffffffffffffffffffffffffffffff16021790555050505050565b6000604051905090565b600080fd5b600080fd5b6000819050919050565b610406816103f3565b811461041157600080fd5b50565b600081359050610423816103fd565b92915050565b60006020828403121561043f5761043e6103e9565b5b600061044d84828501610414565b91505092915050565b600073ffffffffffffffffffffffffffffffffffffffff82169050919050565b600061048182610456565b9050919050565b61049181610476565b82525050565b60006020820190506104ac6000830184610488565b92915050565b6000819050919050565b60006104d76104d26104cd84610456565b6104b2565b610456565b9050919050565b60006104e9826104bc565b9050919050565b60006104fb826104de565b9050919050565b61050b816104f0565b82525050565b60006020820190506105266000830184610502565b92915050565b61053581610476565b811461054057600080fd5b50565b6000813590506105528161052c565b92915050565b6000806040838503121561056f5761056e6103e9565b5b600061057d85828601610414565b925050602061058e85828601610543565b9150509250929050565b6105a1816103f3565b82525050565b60006020820190506105bc6000830184610598565b92915050565b6000815190506105d18161052c565b92915050565b600080fd5b600080fd5b6000601f19601f8301169050919050565b7f4e487b7100000000000000000000000000000000000000000000000000000000600052604160045260246000fd5b61062a826105e1565b810181811067ffffffffffffffff82111715610649576106486105f2565b5b80604052505050565b600061065c6103df565b90506106688282610621565b919050565b600067ffffffffffffffff821115610688576106876105f2565b5b610691826105e1565b9050602081019050919050565b60005b838110156106bc5780820151818401526020810190506106a1565b60008484015250505050565b60006106db6106d68461066d565b610652565b9050828152602081018484840111156106f7576106f66105dc565b5b61070284828561069e565b509392505050565b600082601f83011261071f5761071e6105d7565b5b815161072f8482602086016106c8565b91505092915050565b6000819050919050565b61074b81610738565b811461075657600080fd5b50565b60008151905061076881610742565b92915050565b60008060008060808587031215610788576107876103e9565b5b6000610796878288016105c2565b945050602085015167ffffffffffffffff8111156107b7576107b66103ee565b5b6107c38782880161070a565b935050604085015167ffffffffffffffff8111156107e4576107e36103ee565b5b6107f08782880161070a565b925050606061080187828801610759565b91505092959194509250565b600082825260208201905092915050565b7f4f6e6c79207468652063757272656e742072696768747320686f6c646572206360008201527f616e207472616e73666572207468697300000000000000000000000000000000602082015250565b600061087a60308361080d565b91506108858261081e565b604082019050919050565b600060208201905081810360008301526108a98161086d565b905091905056fea264697066735822122043672297f22a8f17030864735749fdfa7edcc8731009dce97232aca9e1aee15d64736f6c63430008180033",
  "linkReferences": {},
  "deployedLinkReferences": {}
}