{
  "_format": "hh-sol-artifact-1",
  "contractName": "StonekeepRegistry",
  "sourceName": "contracts/StonekeepRegistry.sol",
  "abi": [
    {
      "inputs": [
        {
          "internalType": "bytes32",
          "name": "workHash",
          "type": "bytes32"
        }
      ],
      "name": "getWork",
      "outputs": [
        {
          "internalType": "address",
          "name": "author",
          "type": "address"
        },
        {
          "internalType": "string",
          "name": "ipfsHash",
          "type": "string"
        },
        {
          "internalType": "string",
          "name": "title",
          "type": "string"
        },
        {
          "internalType": "uint256",
          "name": "timestamp",
          "type": "uint256"
        }
      ],
      "stateMutability": "view",
      "type": "function"
    },
    {
      "inputs": [
        {
          "internalType": "bytes32",
          "name": "workHash",
          "type": "bytes32"
        },
        {
          "internalType": "string",
          "name": "ipfsHash",
          "type": "string"
        },
        {
          "internalType": "string",
          "name": "title",
          "type": "string"
        }
      ],
      "name": "registerWork",
      "outputs": [],
      "stateMutability": "nonpayable",
      "type": "function"
    }
  ],
  "bytecode": "0x608060405234801561001057600080fd5b50610a73806100206000396000f3fe608060405234801561001057600080fd5b50600436106100365760003560e01c8063302665371461003b5780636bd9bc6e1461006e575b600080fd5b610055600480360381019061005091906103c9565b61008a565b60405161006594939291906104e0565b60405180910390f35b61008860048036038101906100839190610668565b610259565b005b60006060806000806000808781526020019081526020016000206040518060800160405290816000820160009054906101000a900473ffffffffffffffffffffffffffffffffffffffff1673ffffffffffffffffffffffffffffffffffffffff1673ffffffffffffffffffffffffffffffffffffffff16815260200160018201805461011590610722565b80601f016020809104026020016040519081016040528092919081815260200182805461014190610722565b801561018e5780601f106101635761010080835404028352916020019161018e565b820191906000526020600020905b81548152906001019060200180831161017157829003601f168201915b505050505081526020016002820180546101a790610722565b80601f01602080910402602001604051908101604052809291908181526020018280546101d390610722565b80156102205780601f106101f557610100808354040283529160200191610220565b820191906000526020600020905b81548152906001019060200180831161020357829003601f168201915b50505050508152602001600382015481525050905080600001518160200151826040015183606001519450945094509450509193509193565b600080600085815260200190815260200160002060030154146102b1576040517f08c379a00000000000000000000000000000000000000000000000000000000081526004016102a89061079f565b60405180910390fd5b60405180608001604052803373ffffffffffffffffffffffffffffffffffffffff1681526020018381526020018281526020014281525060008085815260200190815260200160002060008201518160000160006101000a81548173ffffffffffffffffffffffffffffffffffffffff021916908373ffffffffffffffffffffffffffffffffffffffff1602179055506020820151816001019081610356919061096b565b50604082015181600201908161036c919061096b565b5060608201518160030155905050505050565b6000604051905090565b600080fd5b600080fd5b6000819050919050565b6103a681610393565b81146103b157600080fd5b50565b6000813590506103c38161039d565b92915050565b6000602082840312156103df576103de610389565b5b60006103ed848285016103b4565b91505092915050565b600073ffffffffffffffffffffffffffffffffffffffff82169050919050565b6000610421826103f6565b9050919050565b61043181610416565b82525050565b600081519050919050565b600082825260208201905092915050565b60005b83811015610471578082015181840152602081019050610456565b60008484015250505050565b6000601f19601f8301169050919050565b600061049982610437565b6104a38185610442565b93506104b3818560208601610453565b6104bc8161047d565b840191505092915050565b6000819050919050565b6104da816104c7565b82525050565b60006080820190506104f56000830187610428565b8181036020830152610507818661048e565b9050818103604083015261051b818561048e565b905061052a60608301846104d1565b95945050505050565b600080fd5b600080fd5b7f4e487b7100000000000000000000000000000000000000000000000000000000600052604160045260246000fd5b6105758261047d565b810181811067ffffffffffffffff821117156105945761059361053d565b5b80604052505050565b60006105a761037f565b90506105b3828261056c565b919050565b600067ffffffffffffffff8211156105d3576105d261053d565b5b6105dc8261047d565b9050602081019050919050565b82818337600083830152505050565b600061060b610606846105b8565b61059d565b90508281526020810184848401111561062757610626610538565b5b6106328482856105e9565b509392505050565b600082601f83011261064f5761064e610533565b5b813561065f8482602086016105f8565b91505092915050565b60008060006060848603121561068157610680610389565b5b600061068f868287016103b4565b935050602084013567ffffffffffffffff8111156106b0576106af61038e565b5b6106bc8682870161063a565b925050604084013567ffffffffffffffff8111156106dd576106dc61038e565b5b6106e98682870161063a565b9150509250925092565b7f4e487b7100000000000000000000000000000000000000000000000000000000600052602260045260246000fd5b6000600282049050600182168061073a57607f821691505b60208210810361074d5761074c6106f3565b5b50919050565b7f5468697320776f726b20697320616c7265616479207265676973746572656400600082015250565b6000610789601f83610442565b915061079482610753565b602082019050919050565b600060208201905081810360008301526107b88161077c565b9050919050565b60008190508160005260206000209050919050565b60006020601f8301049050919050565b600082821b905092915050565b6000600883026108217fffffffffffffffffffffffffffffffffffffffffffffffffffffffffffffffff826107e4565b61082b86836107e4565b95508019841693508086168417925050509392505050565b6000819050919050565b600061086861086361085e846104c7565b610843565b6104c7565b9050919050565b6000819050919050565b6108828361084d565b61089661088e8261086f565b8484546107f1565b825550505050565b600090565b6108ab61089e565b6108b6818484610879565b505050565b5b818110156108da576108cf6000826108a3565b6001810190506108bc565b5050565b601f82111561091f576108f0816107bf565b6108f9846107d4565b81016020851015610908578190505b61091c610914856107d4565b8301826108bb565b50505b505050565b600082821c905092915050565b600061094260001984600802610924565b1980831691505092915050565b600061095b8383610931565b9150826002028217905092915050565b61097482610437565b67ffffffffffffffff81111561098d5761098c61053d565b5b6109978254610722565b6109a28282856108de565b600060209050601f8311600181146109d557600084156109c3578287015190505b6109cd858261094f565b865550610a35565b601f1984166109e3866107bf565b60005b82811015610a0b578489015182556001820191506020850194506020810190506109e6565b86831015610a285784890151610a24601f891682610931565b8355505b6001600288020188555050505b50505050505056fea2646970667358221220fae86aa9ee8ba20ba42b9c2cc4b440a3b782bb8e13af4f9b0edb350ca6dd460e64736f6c63430008180033",
  "linkReferences": {},
  "deployedLinkReferences": {}
}